S3251fffec007006002061EEFF1FEDECFF1FEDECFF1F00F002F800F040F80CA030C808382418AD
S3251fffec202D18A246671EAB4654465D46AC4201D100F032F87E460F3E0FCCB6460126334272
S3251fffec4000D0FB1AA246AB46334318471C0B00003C0B0000103A02D378C878C1FAD85207CC
S3251fffec6001D330C830C101D504680C60704700000023002400250026103A01D378C1FBD892
S3251fffec80520700D330C100D50B6070471FB5C046C0461FBD10B510BD00F02DFD1146FFF787
S3251fffeca0F5FF00F0AFF800F045FD03B4FFF7F2FF03BC00F049FD000080F30888704772B6FE
S3251fffecc0704762B67047000005480021016181610121C9044161704703490248C86070471B
S3251fffece000E000E00400FA0500ED00E010B5FFF7F3FF10BDF8B54B484949016006214160EB
S3251fffed004949016000F0E2F849494848886000F009FA484C002501280CD1474820604748B8
S3251fffed2004E021680D602168091F216021688142F7D22560FFF7C8FF414E042030614704BD
S3251fffed40776101033F4881613F49416100F009F909203E49C0060160002181803C4A8260CD
S3251fffed603C4AC26041620546288A400501D401206060288AC00B01D10120A06060680128CB
S3251fffed801BD1288A400518D505203061324800E0401E298A490502D50028F9D109E0002836
S3251fffeda007D0B069381A20602C482860FF2011301EE000206060FFF787FFA0680128D3D1E2
S3251fffedc0288AC00BD0D005203061234800E0401E298AC90B02D00028F9D10EE000280CD056
S3251fffede0B069381A20601520C0062860112000066862FFF769FF0120F8BD0020A060FFF736
S3251fffee0063FFB1E7FFF75BFFFFF774FF012802D0FFF762FFFEE700F0ACF900F031FAF9E754
S3251fffee205555000000300040AAAA000000ECFF1F00ED00E004000020FC0F002000080020F2
S3251fffee4000E000E000100240140002000000082800003CFC00001454FF5F000000002828E8
S3251fffee600348004703480449044A054B7047000011ECFF1F7000002070060020700200201C
S3251fffee80700200201F48016801221143016000218180C171418081711A4A20321173118240
S3251fffeea0802313758160704700B5FFF7EBFF00221448D243C2600021C16002610161826236
S3251fffeec081628161C1611421416100BD70B50E4CFFF7D8FF0D49002008600A4D1020A871C9
S3251fffeee00120E87000E0641EE878032802D0002CF9D101E0002C01D1FFF7EEFE0220287144
S3251fffef0070BD000000100240FFFF0100002002401F21C90601224118D203914201D20220C5
S3251fffef207047874901224118D202914201D203207047844941180F2901D20420704782497F
S3251fffef4040188249884201D205207047012070477F480022012149070260001F8842FBD1A7
S3251fffef6070477D487B4941607C49416070477A487849816079498160704710B5784876496D
S3251fffef8000E0401ECA68D20702D00028F9D101E0002801D1FFF7A0FE10BD70B506460D4640
S3251fffefa0FFF7EBFF6C4C20690121084320613580FFF7E3FFE068400703D4280C7080FFF711
S3251fffefc0DCFFE068400703D5E06804210843E060206940084000206170BD70B50546FFF7AE
S3251fffefe0CCFF5D4C02202061656142202061FFF7C4FF0020206170BD70B5FFF7B8FFFFF7DE
S3251ffff000BCFF554C20690425284320612069402108432061FFF7B1FF2069A843206170BD54
S3251ffff02070B5FFF7A4FFFFF7A8FF4B4C20692025284320612069402108432061FFF79DFFB8
S3251ffff0402069A843206170BDF8B53E4C644227886188C043C5B20004060E0091FFF7E0FFFD
S3251ffff060FFF77FFFFFF783FF3B480169102211430161F8B22080FFF780FF0099C8B26080F9
S3251ffff080FFF77BFFFF2D02D02581FFF776FFFF2E02D06681FFF771FF2F48026910218A43A1
S3251ffff0a00261F8BD7047F1B582B0FFF766FF254C64426788A588E6882089009060890190D6
S3251ffff0c0FFF7AEFFFFF74DFFFFF751FFFFF755FF214801691022114301610298002817D033
S3251ffff0e0F8B26080FFF749FFE8B2A080FFF745FFF0B2E080FFF741FF0098C0B22081FFF757
S3251ffff1003CFF0198C0B22081FFF737FF002000E0AA202080FFF731FF0F48026910218A4368
S3251ffff1200261FEBD0C490020C969890700D501207047094801690122520311430161704709
S3251ffff14000F8FFDF000800E0001400E0FF0B0000FC0F00202301674500200240AB89EFCD82
S3251ffff160FF0F0000F94909680885C8694006FCD5704710B5FFF7A3FDF54C0721206800F0E2
S3251ffff1800AFAF24A11688881F24808607920FFF7E9FF1068808C206010BDEC48EE490068CC
S3251ffff1a0EE4A00E01160C3699B06FBD5808CC0B2704770B50E46451C044606D0FFF7EDFFF4
S3251ffff1c044403070761C6D1EF8D1FFF7E6FFA04204D01F20FFF7C6FF552070BDAA2070BDDD
S3251ffff1e0F0B50E46451C010AC7B24F402C0013D0FFF7D3FF4740BC460702FFF7CEFF3843D7
S3251ffff200C1B267464F4001212A1B89028A4201D23080B61C641EEBD1FFF7BFFFB84204D048
S3251ffff2201F20FFF79FFF5520F0BDAA20F0BD70B5FFF778FF00281ED17920FFF793FFFFF77E
S3251ffff240ACFF04460506FFF7A8FF06042E4325464540FFF7A2FF040234434540FFF79DFF57
S3251ffff26004434540FFF799FFA84204D17920FFF779FF204670BD1F20FFF774FFB84870BDE2
S3251ffff280FFB0FFB084B0B549B3480860FFF785FF0446FFF782FF01466140FF2900D05524C3
S3251ffff2a0312C72D00CDC022C2BD004DC002C14D0012C69D11AE0112C33D0212CF9D14EE0A4
S3251ffff2c0732C7CD004DC442C7AD0632CF1D101E1822C76D0922CECD151E1A24A0023D05C76
S3251ffff2e0FFF740FF5B1C0F2BF9D3CCE77920FFF739FF3120FFF736FF0020FFF733FF0020DA
S3251ffff30009E07920FFF72EFF0120FFF72BFF0420FFF728FF4420FFF725FFD9E0FFF722FF54
S3251ffff320B1E7FFF784FF0546FFF7F2FDC0B201282AD0FFF732FF0446E043C6B2FFF72DFFA5
S3251ffff340B04221D17920FFF70DFF641C9BD028466D1C0078FFF706FF641EF8D193E7FFF7FA
S3251ffff36066FF0446FFF7D4FDC0B2022801D003280AD1FFF799FDFFF7A4FC65682068FFF713
S3251ffff3809BFCA8477FE700E086E0FFF750FF0746FFF7BEFDC0B2009001287DD005287FD0E0
S3251ffff3a0FFF7FBFE01A9441C0E46FFF702FFAA289BD10098022805D0032818D013E0ACE07E
S3251ffff3c050E0B7E0A00702D0FC200440241DFFF7C8FD250007D0701B0159781B0019FFF7EA
S3251ffff3e0DCFD2D1FF7D1009804280ED070E0A00702D0FC200440241D200069D0311A0959EA
S3251ffff4003A1A1151001FF9D162E0574887425FD1E00702D0FE200440A41CFFF701FEFFF789
S3251ffff420A0FDFFF7A4FD51480169102211430161FFF7A3FD250008D0701B005B791BC0B20A
S3251ffff4400853FFF79AFDAD1EF6D1484801691022914301617920FFF785FEFFF76AFEFFF746
S3251ffff4603BFC35E0FFF75EFE012819D07920FFF779FEFFF792FE0446FFF78FFE21020843F1
S3251ffff4803B4A0109914210D13A4988420AD1FFF784FE002804D100E002E0FFF7ADFD17E00F
S3251ffff4a01F203BE7FFF779FEFAE701A9441C0D46FFF796FEAA28F3D1002C09D00126F606D4
S3251ffff4c0288880028019FFF788FDAD1C641EF7D1792023E7FFF726FE0128E1D07920FFF789
S3251ffff4e041FEFFF75AFE01A9441C0D46FFF761FEAA2800D0C7E60026002C08D001202946A0
S3251ffff5000A786D1C014691400E43641EF7D1FFF728FD3046FFF798FD08E0FFF703FE0128E5
S3251ffff520BED07920FFF71EFE00200BE07920FFF719FE21E0FFF7F6FD0128B1D07920FFF79A
S3251ffff54011FE0120FFF7AFFDF0E7000000000020040000200D140000AAAA000000300040B5
S3251ffff5605555555556F7FF1F00F8FF1F00200240FF0F0000FFFF0000FFF7DBFD83E6792054
S3251ffff580FFF7F0FD0020FFF78EFD7920FFF7EAFDFFF7DEFCF0E7002203098B422CD3030A9F
S3251ffff5a08B4211D300239C464EE003460B433CD4002243088B4231D303098B421CD3030A89
S3251ffff5c08B4201D394463FE0C3098B4201D3CB01C01A524183098B4201D38B01C01A5241A1
S3251ffff5e043098B4201D34B01C01A524103098B4201D30B01C01A5241C3088B4201D3CB00E4
S3251ffff600C01A524183088B4201D38B00C01A524143088B4201D34B00C01A5241411A00D264
S3251ffff62001465241104670475DE0CA0F00D04942031000D34042534000229C4603098B4276
S3251ffff6402DD3030A8B4212D3FC22890112BA030A8B420CD3890192118B4208D38901921198
S3251ffff6608B4204D389013AD0921100E08909C3098B4201D3CB01C01A524183098B4201D346
S3251ffff6808B01C01A524143098B4201D34B01C01A524103098B4201D30B01C01A5241C308B6
S3251ffff6a08B4201D3CB00C01A524183088B4201D38B00C01A5241D9D243088B4201D34B0047
S3251ffff6c0C01A5241411A00D20146634652415B10104601D34042002B00D5494270476346E7
S3251ffff6e05B1000D3404201B50020C046C04602BD704770477047754600F022F8AE460500A2
S3251ffff70069465346C008C000854618B020B5FFF7A9FB60BC00274908B6460026C0C5C0C533
S3251ffff720C0C5C0C5C0C5C0C5C0C5C0C5403D49008D4670470446C046C0462046FFF7B5FAD6
S3251ffff740004870471000002001491820ABBEFEE7260002007047790B310001021121314448
S3251ffff760637382927900000088F7FF1F000000201000000054ECFF1F98F7FF1F10000020FA
S3251ffff7806006000070ECFF1F00380140000000000000000000000000FFFFFFFFFFFFFFFFF4
S3251ffff7a0FFFFFFFF31001000FFFFFFFF0F0032001157335234363120D306F205F0FFFFFF46
S3251ffff7c0FFFF2A05FFFFFFFFFCFFFFFF1000FFFFFFFFFFFFFFFFFFFFFFFFFFFFFFFFFFFFE5
S3251ffff7e0FFFFFFFFFFFFFFFFF3FFFFFFFFFFFFFFFFFFFFFFFFFFFFFF689757A840BF3FC00D
S3251ffff800AA55FF00FFFFFFFFFE01FFFFFFFFFFFFFFFFFFFFFFFFFFFFFFFFFFFFFFFFFFFFE1
S3251ffff820FFFFFFFFFFFFFFFFFFFFFFFFFFFFFFFFFFFFFFFFFFFFFFFFFFFFFFFFFFFFFFFFC4
S3251ffff840FFFFFFFFFFFFFFFFFFFFFFFFFFFFFFFFFFFFFFFFFFFFFFFFFFFFFFFFFFFFFFFFA4
S3251ffff860FFFFFFFFFFFFFFFFFFFFFFFFFFFFFFFFFFFFFFFFFFFFFFFFFFFFFFFFFFFFFFFF84
S3251ffff880FFFFFFFFFFFFFFFFFFFFFFFFFFFFFFFFFFFFFFFFFFFFFFFFFFFFFFFFFFFFFFFF64
S3251ffff8a0FFFFFFFFFFFFFFFFFFFFFFFFFFFFFFFFFFFFFFFFFFFFFFFFFFFFFFFFFFFFFFFF44
S3251ffff8c0FFFFFFFFFFFFFFFFFFFFFFFFFFFFFFFFFFFFFFFFFFFFFFFFFFFFFFFFFFFFFFFF24
S3251ffff8e0FFFFFFFFFFFFFFFFFFFFFFFFFFFFFFFFFFFFFFFFFFFFFFFFFFFFFFFFFFFFFFFF04
S3251ffff900FFFFFFFFFFFFFFFFFFFFFFFFFFFFFFFFFFFFFFFFFFFFFFFFFFFFFFFFFFFFFFFFE3
S3251ffff920FFFFFFFFFFFFFFFFFFFFFFFFFFFFFFFFFFFFFFFFFFFFFFFFFFFFFFFFFFFFFFFFC3
S3251ffff940FFFFFFFFFFFFFFFFFFFFFFFFFFFFFFFFFFFFFFFFFFFFFFFFFFFFFFFFFFFFFFFFA3
S3251ffff960FFFFFFFFFFFFFFFFFFFFFFFFFFFFFFFFFFFFFFFFFFFFFFFFFFFFFFFFFFFFFFFF83
S3251ffff980FFFFFFFFFFFFFFFFFFFFFFFFFFFFFFFFFFFFFFFFFFFFFFFFFFFFFFFFFFFFFFFF63
S3251ffff9a0FFFFFFFFFFFFFFFFFFFFFFFFFFFFFFFFFFFFFFFFFFFFFFFFFFFFFFFFFFFFFFFF43
S3251ffff9c0FFFFFFFFFFFFFFFFFFFFFFFFFFFFFFFFFFFFFFFFFFFFFFFFFFFFFFFFFFFFFFFF23
S3251ffff9e0FFFFFFFFFFFFFFFFFFFFFFFFFFFFFFFFFFFFFFFFFFFFFFFFFFFFFFFFFFFFFFFF03
S3251ffffa00FFFFFFFFFFFFFFFFFFFFFFFFFFFFFFFFFFFFFFFFFFFFFFFFFFFFFFFFFFFFFFFFE2
S3251ffffa20FFFFFFFFFFFFFFFFFFFFFFFFFFFFFFFFFFFFFFFFFFFFFFFFFFFFFFFFFFFFFFFFC2
S3251ffffa40FFFFFFFFFFFFFFFFFFFFFFFFFFFFFFFFFFFFFFFFFFFFFFFFFFFFFFFFFFFFFFFFA2
S3251ffffa60FFFFFFFFFFFFFFFFFFFFFFFFFFFFFFFFFFFFFFFFFFFFFFFFFFFFFFFFFFFFFFFF82
S3251ffffa80FFFFFFFFFFFFFFFFFFFFFFFFFFFFFFFFFFFFFFFFFFFFFFFFFFFFFFFFFFFFFFFF62
S3251ffffaa0FFFFFFFFFFFFFFFFFFFFFFFFFFFFFFFFFFFFFFFFFFFFFFFFFFFFFFFFFFFFFFFF42
S3251ffffac0FFFFFFFFFFFFFFFFFFFFFFFFFFFFFFFFFFFFFFFFFFFFFFFFFFFFFFFFFFFFFFFF22
S3251ffffae0FFFFFFFFFFFFFFFFFFFFFFFFFFFFFFFFFFFFFFFFFFFFFFFFFFFFFFFFFFFFFFFF02
S3251ffffb00FFFFFFFFFFFFFFFFFFFFFFFFFFFFFFFFFFFFFFFFFFFFFFFFFFFFFFFFFFFFFFFFE1
S3251ffffb20FFFFFFFFFFFFFFFFFFFFFFFFFFFFFFFFFFFFFFFFFFFFFFFFFFFFFFFFFFFFFFFFC1
S3251ffffb40FFFFFFFFFFFFFFFFFFFFFFFFFFFFFFFFFFFFFFFFFFFFFFFFFFFFFFFFFFFFFFFFA1
S3251ffffb60FFFFFFFFFFFFFFFFFFFFFFFFFFFFFFFFFFFFFFFFFFFFFFFFFFFFFFFFFFFFFFFF81
S3251ffffb80FFFFFFFFFFFFFFFFFFFFFFFFFFFFFFFFFFFFFFFFFFFFFFFFFFFFFFFFFFFFFFFF61
S3251ffffba0FFFFFFFFFFFFFFFFFFFFFFFFFFFFFFFFFFFFFFFFFFFFFFFFFFFFFFFFFFFFFFFF41
S3251ffffbc0FFFFFFFFFFFFFFFFFFFFFFFFFFFFFFFFFFFFFFFFFFFFFFFFFFFFFFFFFFFFFFFF21
S3251ffffbe0FFFFFFFFFFFFFFFFFFFFFFFFFFFFFFFFFFFFFFFFFFFFFFFFFFFFFFFFFFFFFFFF01
S70500000000FA
